{
  "contractName": "Adoption",
  "abi": [
    {
      "constant": true,
      "inputs": [
        {
          "name": "",
          "type": "uint256"
        }
      ],
      "name": "adopters",
      "outputs": [
        {
          "name": "",
          "type": "address"
        }
      ],
      "payable": false,
      "stateMutability": "view",
      "type": "function"
    },
    {
      "constant": false,
      "inputs": [
        {
          "name": "petId",
          "type": "uint256"
        }
      ],
      "name": "adopt",
      "outputs": [
        {
          "name": "",
          "type": "uint256"
        }
      ],
      "payable": false,
      "stateMutability": "nonpayable",
      "type": "function"
    },
    {
      "constant": true,
      "inputs": [
        {
          "name": "fake",
          "type": "uint256"
        }
      ],
      "name": "getAdoptersNoArgs",
      "outputs": [
        {
          "name": "",
          "type": "address[16]"
        }
      ],
      "payable": false,
      "stateMutability": "view",
      "type": "function"
    },
    {
      "constant": true,
      "inputs": [
        {
          "name": "fake",
          "type": "uint256"
        }
      ],
      "name": "getNumbers",
      "outputs": [
        {
          "name": "",
          "type": "uint256[16]"
        }
      ],
      "payable": false,
      "stateMutability": "view",
      "type": "function"
    },
    {
      "constant": true,
      "inputs": [
        {
          "name": "",
          "type": "uint256"
        }
      ],
      "name": "numbers",
      "outputs": [
        {
          "name": "",
          "type": "uint256"
        }
      ],
      "payable": false,
      "stateMutability": "view",
      "type": "function"
    },
    {
      "constant": true,
      "inputs": [
        {
          "name": "fake",
          "type": "uint256"
        }
      ],
      "name": "getAllAdopters",
      "outputs": [
        {
          "name": "",
          "type": "address[16]"
        }
      ],
      "payable": false,
      "stateMutability": "view",
      "type": "function"
    },
    {
      "constant": true,
      "inputs": [],
      "name": "getNumber",
      "outputs": [
        {
          "name": "",
          "type": "uint256"
        }
      ],
      "payable": false,
      "stateMutability": "view",
      "type": "function"
    }
  ],
  "bytecode": "0x6060604052341561000f57600080fd5b6105338061001e6000396000f300606060405260043610610083576000357c0100000000000000000000000000000000000000000000000000000000900463ffffffff16806343ae80d3146100885780638588b2c5146100eb5780638820297e1461012257806389f915f614610173578063d39fa233146101c4578063d8341dfd146101fb578063f2c9ecd81461025a575b600080fd5b341561009357600080fd5b6100a96004808035906020019091905050610283565b604051808273ffffffffffffffffffffffffffffffffffffffff1673ffffffffffffffffffffffffffffffffffffffff16815260200191505060405180910390f35b34156100f657600080fd5b61010c60048080359060200190919050506102b8565b6040518082815260200191505060405180910390f35b341561012d57600080fd5b61013561032d565b6040518082601060200280838360005b83811015610160578082015181840152602081019050610145565b5050505090500191505060405180910390f35b341561017e57600080fd5b6101866103ae565b6040518082601060200280838360005b838110156101b1578082015181840152602081019050610196565b5050505090500191505060405180910390f35b34156101cf57600080fd5b6101e560048080359060200190919050506103f8565b6040518082815260200191505060405180910390f35b341561020657600080fd5b61021c6004808035906020019091905050610412565b6040518082601060200280838360005b8381101561024757808201518184015260208101905061022c565b5050505090500191505060405180910390f35b341561026557600080fd5b61026d610495565b6040518082815260200191505060405180910390f35b60008160108110151561029257fe5b016000915054906101000a900473ffffffffffffffffffffffffffffffffffffffff1681565b60008082101580156102cb5750600f8211155b15156102d657600080fd5b336000836010811015156102e657fe5b0160006101000a81548173ffffffffffffffffffffffffffffffffffffffff021916908373ffffffffffffffffffffffffffffffffffffffff160217905550819050919050565b61033561049f565b60006010806020026040519081016040528092919082601080156103a4576020028201915b8160009054906101000a900473ffffffffffffffffffffffffffffffffffffffff1673ffffffffffffffffffffffffffffffffffffffff168152602001906001019080831161035a575b5050505050905090565b6103b66104de565b601080806020026040519081016040528092919082601080156103ee576020028201915b8154815260200190600101908083116103da575b5050505050905090565b60108160108110151561040757fe5b016000915090505481565b61041a61049f565b6000601080602002604051908101604052809291908260108015610489576020028201915b8160009054906101000a900473ffffffffffffffffffffffffffffffffffffffff1673ffffffffffffffffffffffffffffffffffffffff168152602001906001019080831161043f575b50505050509050919050565b60006104d2905090565b610200604051908101604052806010905b600073ffffffffffffffffffffffffffffffffffffffff168152602001906001900390816104b05790505090565b610200604051908101604052806010905b60008152602001906001900390816104ef57905050905600a165627a7a7230582063deec5cc0c478957f5b4f7dde17b19ef5ff8125793f6a5bba1fb0333c5e66ca0029",
  "source": "pragma solidity ^0.4.4;\r\n\r\ncontract Adoption {\r\n    address[16] public adopters;\r\n    uint[16] public numbers;\r\n\r\n    function adopt(uint petId) public returns (uint) {\r\n        require(petId >= 0 && petId <= 15);\r\n\r\n        adopters[petId] = msg.sender;\r\n\r\n\r\n        return petId;\r\n    }\r\n\r\n    // it works because Solidity (or web3) needs an argument if a method returns an array\r\n    function getAllAdopters(uint fake) view public returns (address[16]) {\r\n        return adopters;\r\n    }\r\n\r\n    // does not work, \"Invalid number of arguments\" error will be in Chrome console\r\n    function getAdoptersNoArgs() view public returns (address[16]) {\r\n        return adopters;\r\n    }\r\n\r\n    // works because it returns a primitive\r\n    function getNumber() view public returns (uint) {\r\n        return 1234;\r\n    }\r\n\r\n    // does not works, \"Invalid number of arguments\" error will be in Chrome console\r\n    function getNumbers() view public returns (uint[16]) {\r\n        return numbers;\r\n    }\r\n}",
  "sourcePath": "C:\\dev\\primeball\\petshop\\contracts\\Adoption.sol",
  "compiler": {
    "name": "solc",
    "version": "0.4.18+commit.9cf6e910.Emscripten.clang"
  },
  "schemaVersion": "1.0.1",
  "updatedAt": "2017-11-10T12:58:15.197Z"
}